{
  "_format": "hh-sol-artifact-1",
  "contractName": "BookNFT",
  "sourceName": "contracts/BookNFT.sol",
  "abi": [
    {
      "inputs": [],
      "stateMutability": "nonpayable",
      "type": "constructor"
    },
    {
      "inputs": [
        {
          "internalType": "address",
          "name": "sender",
          "type": "address"
        },
        {
          "internalType": "uint256",
          "name": "tokenId",
          "type": "uint256"
        },
        {
          "internalType": "address",
          "name": "owner",
          "type": "address"
        }
      ],
      "name": "ERC721IncorrectOwner",
      "type": "error"
    },
    {
      "inputs": [
        {
          "internalType": "address",
          "name": "operator",
          "type": "address"
        },
        {
          "internalType": "uint256",
          "name": "tokenId",
          "type": "uint256"
        }
      ],
      "name": "ERC721InsufficientApproval",
      "type": "error"
    },
    {
      "inputs": [
        {
          "internalType": "address",
          "name": "approver",
          "type": "address"
        }
      ],
      "name": "ERC721InvalidApprover",
      "type": "error"
    },
    {
      "inputs": [
        {
          "internalType": "address",
          "name": "operator",
          "type": "address"
        }
      ],
      "name": "ERC721InvalidOperator",
      "type": "error"
    },
    {
      "inputs": [
        {
          "internalType": "address",
          "name": "owner",
          "type": "address"
        }
      ],
      "name": "ERC721InvalidOwner",
      "type": "error"
    },
    {
      "inputs": [
        {
          "internalType": "address",
          "name": "receiver",
          "type": "address"
        }
      ],
      "name": "ERC721InvalidReceiver",
      "type": "error"
    },
    {
      "inputs": [
        {
          "internalType": "address",
          "name": "sender",
          "type": "address"
        }
      ],
      "name": "ERC721InvalidSender",
      "type": "error"
    },
    {
      "inputs": [
        {
          "internalType": "uint256",
          "name": "tokenId",
          "type": "uint256"
        }
      ],
      "name": "ERC721NonexistentToken",
      "type": "error"
    },
    {
      "inputs": [
        {
          "internalType": "address",
          "name": "owner",
          "type": "address"
        }
      ],
      "name": "OwnableInvalidOwner",
      "type": "error"
    },
    {
      "inputs": [
        {
          "internalType": "address",
          "name": "account",
          "type": "address"
        }
      ],
      "name": "OwnableUnauthorizedAccount",
      "type": "error"
    },
    {
      "anonymous": false,
      "inputs": [
        {
          "indexed": true,
          "internalType": "address",
          "name": "owner",
          "type": "address"
        },
        {
          "indexed": true,
          "internalType": "address",
          "name": "approved",
          "type": "address"
        },
        {
          "indexed": true,
          "internalType": "uint256",
          "name": "tokenId",
          "type": "uint256"
        }
      ],
      "name": "Approval",
      "type": "event"
    },
    {
      "anonymous": false,
      "inputs": [
        {
          "indexed": true,
          "internalType": "address",
          "name": "owner",
          "type": "address"
        },
        {
          "indexed": true,
          "internalType": "address",
          "name": "operator",
          "type": "address"
        },
        {
          "indexed": false,
          "internalType": "bool",
          "name": "approved",
          "type": "bool"
        }
      ],
      "name": "ApprovalForAll",
      "type": "event"
    },
    {
      "anonymous": false,
      "inputs": [
        {
          "indexed": false,
          "internalType": "uint256",
          "name": "_fromTokenId",
          "type": "uint256"
        },
        {
          "indexed": false,
          "internalType": "uint256",
          "name": "_toTokenId",
          "type": "uint256"
        }
      ],
      "name": "BatchMetadataUpdate",
      "type": "event"
    },
    {
      "anonymous": false,
      "inputs": [
        {
          "indexed": true,
          "internalType": "uint256",
          "name": "tokenId",
          "type": "uint256"
        },
        {
          "indexed": true,
          "internalType": "string",
          "name": "isbn",
          "type": "string"
        },
        {
          "indexed": true,
          "internalType": "address",
          "name": "owner",
          "type": "address"
        },
        {
          "indexed": false,
          "internalType": "string",
          "name": "title",
          "type": "string"
        },
        {
          "indexed": false,
          "internalType": "string",
          "name": "author",
          "type": "string"
        }
      ],
      "name": "BookMinted",
      "type": "event"
    },
    {
      "anonymous": false,
      "inputs": [
        {
          "indexed": false,
          "internalType": "uint256",
          "name": "_tokenId",
          "type": "uint256"
        }
      ],
      "name": "MetadataUpdate",
      "type": "event"
    },
    {
      "anonymous": false,
      "inputs": [
        {
          "indexed": true,
          "internalType": "address",
          "name": "previousOwner",
          "type": "address"
        },
        {
          "indexed": true,
          "internalType": "address",
          "name": "newOwner",
          "type": "address"
        }
      ],
      "name": "OwnershipTransferred",
      "type": "event"
    },
    {
      "anonymous": false,
      "inputs": [
        {
          "indexed": true,
          "internalType": "address",
          "name": "from",
          "type": "address"
        },
        {
          "indexed": true,
          "internalType": "address",
          "name": "to",
          "type": "address"
        },
        {
          "indexed": true,
          "internalType": "uint256",
          "name": "tokenId",
          "type": "uint256"
        }
      ],
      "name": "Transfer",
      "type": "event"
    },
    {
      "inputs": [
        {
          "internalType": "address",
          "name": "to",
          "type": "address"
        },
        {
          "internalType": "uint256",
          "name": "tokenId",
          "type": "uint256"
        }
      ],
      "name": "approve",
      "outputs": [],
      "stateMutability": "nonpayable",
      "type": "function"
    },
    {
      "inputs": [
        {
          "internalType": "address",
          "name": "owner",
          "type": "address"
        }
      ],
      "name": "balanceOf",
      "outputs": [
        {
          "internalType": "uint256",
          "name": "",
          "type": "uint256"
        }
      ],
      "stateMutability": "view",
      "type": "function"
    },
    {
      "inputs": [
        {
          "internalType": "uint256",
          "name": "",
          "type": "uint256"
        }
      ],
      "name": "bookMetadata",
      "outputs": [
        {
          "internalType": "string",
          "name": "isbn",
          "type": "string"
        },
        {
          "internalType": "string",
          "name": "title",
          "type": "string"
        },
        {
          "internalType": "string",
          "name": "author",
          "type": "string"
        },
        {
          "internalType": "uint256",
          "name": "mintedAt",
          "type": "uint256"
        },
        {
          "internalType": "address",
          "name": "originalOwner",
          "type": "address"
        }
      ],
      "stateMutability": "view",
      "type": "function"
    },
    {
      "inputs": [
        {
          "internalType": "uint256",
          "name": "tokenId",
          "type": "uint256"
        }
      ],
      "name": "getApproved",
      "outputs": [
        {
          "internalType": "address",
          "name": "",
          "type": "address"
        }
      ],
      "stateMutability": "view",
      "type": "function"
    },
    {
      "inputs": [
        {
          "internalType": "string",
          "name": "isbn",
          "type": "string"
        }
      ],
      "name": "getBookByISBN",
      "outputs": [
        {
          "internalType": "uint256",
          "name": "tokenId",
          "type": "uint256"
        },
        {
          "internalType": "address",
          "name": "owner",
          "type": "address"
        },
        {
          "components": [
            {
              "internalType": "string",
              "name": "isbn",
              "type": "string"
            },
            {
              "internalType": "string",
              "name": "title",
              "type": "string"
            },
            {
              "internalType": "string",
              "name": "author",
              "type": "string"
            },
            {
              "internalType": "uint256",
              "name": "mintedAt",
              "type": "uint256"
            },
            {
              "internalType": "address",
              "name": "originalOwner",
              "type": "address"
            }
          ],
          "internalType": "struct BookNFT.BookMetadata",
          "name": "metadata",
          "type": "tuple"
        }
      ],
      "stateMutability": "view",
      "type": "function"
    },
    {
      "inputs": [
        {
          "internalType": "address",
          "name": "owner",
          "type": "address"
        },
        {
          "internalType": "address",
          "name": "operator",
          "type": "address"
        }
      ],
      "name": "isApprovedForAll",
      "outputs": [
        {
          "internalType": "bool",
          "name": "",
          "type": "bool"
        }
      ],
      "stateMutability": "view",
      "type": "function"
    },
    {
      "inputs": [
        {
          "internalType": "string",
          "name": "",
          "type": "string"
        }
      ],
      "name": "isbnExists",
      "outputs": [
        {
          "internalType": "bool",
          "name": "",
          "type": "bool"
        }
      ],
      "stateMutability": "view",
      "type": "function"
    },
    {
      "inputs": [
        {
          "internalType": "string",
          "name": "",
          "type": "string"
        }
      ],
      "name": "isbnToTokenId",
      "outputs": [
        {
          "internalType": "uint256",
          "name": "",
          "type": "uint256"
        }
      ],
      "stateMutability": "view",
      "type": "function"
    },
    {
      "inputs": [
        {
          "internalType": "address",
          "name": "to",
          "type": "address"
        },
        {
          "internalType": "string",
          "name": "isbn",
          "type": "string"
        },
        {
          "internalType": "string",
          "name": "title",
          "type": "string"
        },
        {
          "internalType": "string",
          "name": "author",
          "type": "string"
        },
        {
          "internalType": "string",
          "name": "uri",
          "type": "string"
        }
      ],
      "name": "mintBook",
      "outputs": [
        {
          "internalType": "uint256",
          "name": "",
          "type": "uint256"
        }
      ],
      "stateMutability": "nonpayable",
      "type": "function"
    },
    {
      "inputs": [],
      "name": "name",
      "outputs": [
        {
          "internalType": "string",
          "name": "",
          "type": "string"
        }
      ],
      "stateMutability": "view",
      "type": "function"
    },
    {
      "inputs": [],
      "name": "owner",
      "outputs": [
        {
          "internalType": "address",
          "name": "",
          "type": "address"
        }
      ],
      "stateMutability": "view",
      "type": "function"
    },
    {
      "inputs": [
        {
          "internalType": "uint256",
          "name": "tokenId",
          "type": "uint256"
        }
      ],
      "name": "ownerOf",
      "outputs": [
        {
          "internalType": "address",
          "name": "",
          "type": "address"
        }
      ],
      "stateMutability": "view",
      "type": "function"
    },
    {
      "inputs": [],
      "name": "renounceOwnership",
      "outputs": [],
      "stateMutability": "nonpayable",
      "type": "function"
    },
    {
      "inputs": [
        {
          "internalType": "address",
          "name": "from",
          "type": "address"
        },
        {
          "internalType": "address",
          "name": "to",
          "type": "address"
        },
        {
          "internalType": "uint256",
          "name": "tokenId",
          "type": "uint256"
        }
      ],
      "name": "safeTransferFrom",
      "outputs": [],
      "stateMutability": "nonpayable",
      "type": "function"
    },
    {
      "inputs": [
        {
          "internalType": "address",
          "name": "from",
          "type": "address"
        },
        {
          "internalType": "address",
          "name": "to",
          "type": "address"
        },
        {
          "internalType": "uint256",
          "name": "tokenId",
          "type": "uint256"
        },
        {
          "internalType": "bytes",
          "name": "data",
          "type": "bytes"
        }
      ],
      "name": "safeTransferFrom",
      "outputs": [],
      "stateMutability": "nonpayable",
      "type": "function"
    },
    {
      "inputs": [
        {
          "internalType": "address",
          "name": "operator",
          "type": "address"
        },
        {
          "internalType": "bool",
          "name": "approved",
          "type": "bool"
        }
      ],
      "name": "setApprovalForAll",
      "outputs": [],
      "stateMutability": "nonpayable",
      "type": "function"
    },
    {
      "inputs": [
        {
          "internalType": "bytes4",
          "name": "interfaceId",
          "type": "bytes4"
        }
      ],
      "name": "supportsInterface",
      "outputs": [
        {
          "internalType": "bool",
          "name": "",
          "type": "bool"
        }
      ],
      "stateMutability": "view",
      "type": "function"
    },
    {
      "inputs": [],
      "name": "symbol",
      "outputs": [
        {
          "internalType": "string",
          "name": "",
          "type": "string"
        }
      ],
      "stateMutability": "view",
      "type": "function"
    },
    {
      "inputs": [
        {
          "internalType": "uint256",
          "name": "tokenId",
          "type": "uint256"
        }
      ],
      "name": "tokenURI",
      "outputs": [
        {
          "internalType": "string",
          "name": "",
          "type": "string"
        }
      ],
      "stateMutability": "view",
      "type": "function"
    },
    {
      "inputs": [
        {
          "internalType": "address",
          "name": "from",
          "type": "address"
        },
        {
          "internalType": "address",
          "name": "to",
          "type": "address"
        },
        {
          "internalType": "uint256",
          "name": "tokenId",
          "type": "uint256"
        }
      ],
      "name": "transferFrom",
      "outputs": [],
      "stateMutability": "nonpayable",
      "type": "function"
    },
    {
      "inputs": [
        {
          "internalType": "address",
          "name": "newOwner",
          "type": "address"
        }
      ],
      "name": "transferOwnership",
      "outputs": [],
      "stateMutability": "nonpayable",
      "type": "function"
    }
  ],
  "bytecode": "0x60806040523480156200001157600080fd5b50336040518060400160405280601281526020017f426f6f6b204f776e657273686970204e465400000000000000000000000000008152506040518060400160405280600481526020017f424f4f4b00000000000000000000000000000000000000000000000000000000815250816000908162000090919062000472565b508060019081620000a2919062000472565b505050600073ffffffffffffffffffffffffffffffffffffffff168173ffffffffffffffffffffffffffffffffffffffff16036200011a5760006040517f1e4fbdf70000000000000000000000000000000000000000000000000000000081526004016200011191906200059e565b60405180910390fd5b6200012b816200013260201b60201c565b50620005bb565b6000600760009054906101000a900473ffffffffffffffffffffffffffffffffffffffff16905081600760006101000a81548173ffffffffffffffffffffffffffffffffffffffff021916908373ffffffffffffffffffffffffffffffffffffffff1602179055508173ffffffffffffffffffffffffffffffffffffffff168173ffffffffffffffffffffffffffffffffffffffff167f8be0079c531659141344cd1fd0a4f28419497f9722a3daafe3b4186f6b6457e060405160405180910390a35050565b600081519050919050565b7f4e487b7100000000000000000000000000000000000000000000000000000000600052604160045260246000fd5b7f4e487b7100000000000000000000000000000000000000000000000000000000600052602260045260246000fd5b600060028204905060018216806200027a57607f821691505b60208210810362000290576200028f62000232565b5b50919050565b60008190508160005260206000209050919050565b60006020601f8301049050919050565b600082821b905092915050565b600060088302620002fa7fffffffffffffffffffffffffffffffffffffffffffffffffffffffffffffffff82620002bb565b620003068683620002bb565b95508019841693508086168417925050509392505050565b6000819050919050565b6000819050919050565b6000620003536200034d62000347846200031e565b62000328565b6200031e565b9050919050565b6000819050919050565b6200036f8362000332565b620003876200037e826200035a565b848454620002c8565b825550505050565b600090565b6200039e6200038f565b620003ab81848462000364565b505050565b5b81811015620003d357620003c760008262000394565b600181019050620003b1565b5050565b601f8211156200042257620003ec8162000296565b620003f784620002ab565b8101602085101562000407578190505b6200041f6200041685620002ab565b830182620003b0565b50505b505050565b600082821c905092915050565b6000620004476000198460080262000427565b1980831691505092915050565b600062000462838362000434565b9150826002028217905092915050565b6200047d82620001f8565b67ffffffffffffffff81111562000499576200049862000203565b5b620004a5825462000261565b620004b2828285620003d7565b600060209050601f831160018114620004ea5760008415620004d5578287015190505b620004e1858262000454565b86555062000551565b601f198416620004fa8662000296565b60005b828110156200052457848901518255600182019150602085019450602081019050620004fd565b8683101562000544578489015162000540601f89168262000434565b8355505b6001600288020188555050505b505050505050565b600073ffffffffffffffffffffffffffffffffffffffff82169050919050565b6000620005868262000559565b9050919050565b620005988162000579565b82525050565b6000602082019050620005b560008301846200058d565b92915050565b61335d80620005cb6000396000f3fe608060405234801561001057600080fd5b50600436106101375760003560e01c8063715018a6116100b8578063c26d75421161007c578063c26d75421461034e578063c87b56dd1461037e578063cc23b100146103ae578063da0e23eb146103e2578063e985e9c514610412578063f2fde38b1461044257610137565b8063715018a6146102d05780638da5cb5b146102da57806395d89b41146102f8578063a22cb46514610316578063b88d4fde1461033257610137565b806323b872dd116100ff57806323b872dd14610208578063250e72e91461022457806342842e0e146102545780636352211e1461027057806370a08231146102a057610137565b806301ffc9a71461013c57806306fdde031461016c578063081812fc1461018a578063095ea7b3146101ba578063233d280c146101d6575b600080fd5b610156600480360381019061015191906123b9565b61045e565b6040516101639190612401565b60405180910390f35b610174610470565b60405161018191906124ac565b60405180910390f35b6101a4600480360381019061019f9190612504565b610502565b6040516101b19190612572565b60405180910390f35b6101d460048036038101906101cf91906125b9565b61051e565b005b6101f060048036038101906101eb919061272e565b610534565b6040516101ff93929190612872565b60405180910390f35b610222600480360381019061021d91906128b0565b610813565b005b61023e6004803603810190610239919061272e565b610915565b60405161024b9190612903565b60405180910390f35b61026e600480360381019061026991906128b0565b610943565b005b61028a60048036038101906102859190612504565b610963565b6040516102979190612572565b60405180910390f35b6102ba60048036038101906102b5919061291e565b610975565b6040516102c79190612903565b60405180910390f35b6102d8610a2f565b005b6102e2610a43565b6040516102ef9190612572565b60405180910390f35b610300610a6d565b60405161030d91906124ac565b60405180910390f35b610330600480360381019061032b9190612977565b610aff565b005b61034c60048036038101906103479190612a58565b610b15565b005b6103686004803603810190610363919061272e565b610b3a565b6040516103759190612401565b60405180910390f35b61039860048036038101906103939190612504565b610b70565b6040516103a591906124ac565b60405180910390f35b6103c860048036038101906103c39190612504565b610b82565b6040516103d9959493929190612adb565b60405180910390f35b6103fc60048036038101906103f79190612b43565b610d70565b6040516104099190612903565b60405180910390f35b61042c60048036038101906104279190612c2e565b611009565b6040516104399190612401565b60405180910390f35b61045c6004803603810190610457919061291e565b61109d565b005b600061046982611123565b9050919050565b60606000805461047f90612c9d565b80601f01602080910402602001604051908101604052809291908181526020018280546104ab90612c9d565b80156104f85780601f106104cd576101008083540402835291602001916104f8565b820191906000526020600020905b8154815290600101906020018083116104db57829003601f168201915b5050505050905090565b600061050d82611184565b506105178261120c565b9050919050565b610530828261052b611249565b611251565b5050565b60008061053f612308565b600b8460405161054f9190612d0a565b908152602001604051809103902060009054906101000a900460ff166105aa576040517f08c379a00000000000000000000000000000000000000000000000000000000081526004016105a190612d6d565b60405180910390fd5b6009846040516105ba9190612d0a565b90815260200160405180910390205492506105d483610963565b9150600a60008481526020019081526020016000206040518060a001604052908160008201805461060490612c9d565b80601f016020809104026020016040519081016040528092919081815260200182805461063090612c9d565b801561067d5780601f106106525761010080835404028352916020019161067d565b820191906000526020600020905b81548152906001019060200180831161066057829003601f168201915b5050505050815260200160018201805461069690612c9d565b80601f01602080910402602001604051908101604052809291908181526020018280546106c290612c9d565b801561070f5780601f106106e45761010080835404028352916020019161070f565b820191906000526020600020905b8154815290600101906020018083116106f257829003601f168201915b5050505050815260200160028201805461072890612c9d565b80601f016020809104026020016040519081016040528092919081815260200182805461075490612c9d565b80156107a15780601f10610776576101008083540402835291602001916107a1565b820191906000526020600020905b81548152906001019060200180831161078457829003601f168201915b50505050508152602001600382015481526020016004820160009054906101000a900473ffffffffffffffffffffffffffffffffffffffff1673ffffffffffffffffffffffffffffffffffffffff1673ffffffffffffffffffffffffffffffffffffffff168152505090509193909250565b600073ffffffffffffffffffffffffffffffffffffffff168273ffffffffffffffffffffffffffffffffffffffff16036108855760006040517f64a0ae9200000000000000000000000000000000000000000000000000000000815260040161087c9190612572565b60405180910390fd5b60006108998383610894611249565b611263565b90508373ffffffffffffffffffffffffffffffffffffffff168173ffffffffffffffffffffffffffffffffffffffff161461090f578382826040517f64283d7b00000000000000000000000000000000000000000000000000000000815260040161090693929190612d8d565b60405180910390fd5b50505050565b6009818051602081018201805184825260208301602085012081835280955050505050506000915090505481565b61095e83838360405180602001604052806000815250610b15565b505050565b600061096e82611184565b9050919050565b60008073ffffffffffffffffffffffffffffffffffffffff168273ffffffffffffffffffffffffffffffffffffffff16036109e85760006040517f89c62b640000000000000000000000000000000000000000000000000000000081526004016109df9190612572565b60405180910390fd5b600360008373ffffffffffffffffffffffffffffffffffffffff1673ffffffffffffffffffffffffffffffffffffffff168152602001908152602001600020549050919050565b610a3761147d565b610a416000611504565b565b6000600760009054906101000a900473ffffffffffffffffffffffffffffffffffffffff16905090565b606060018054610a7c90612c9d565b80601f0160208091040260200160405190810160405280929190818152602001828054610aa890612c9d565b8015610af55780601f10610aca57610100808354040283529160200191610af5565b820191906000526020600020905b815481529060010190602001808311610ad857829003601f168201915b5050505050905090565b610b11610b0a611249565b83836115ca565b5050565b610b20848484610813565b610b34610b2b611249565b85858585611739565b50505050565b600b818051602081018201805184825260208301602085012081835280955050505050506000915054906101000a900460ff1681565b6060610b7b826118ea565b9050919050565b600a602052806000526040600020600091509050806000018054610ba590612c9d565b80601f0160208091040260200160405190810160405280929190818152602001828054610bd190612c9d565b8015610c1e5780601f10610bf357610100808354040283529160200191610c1e565b820191906000526020600020905b815481529060010190602001808311610c0157829003601f168201915b505050505090806001018054610c3390612c9d565b80601f0160208091040260200160405190810160405280929190818152602001828054610c5f90612c9d565b8015610cac5780601f10610c8157610100808354040283529160200191610cac565b820191906000526020600020905b815481529060010190602001808311610c8f57829003601f168201915b505050505090806002018054610cc190612c9d565b80601f0160208091040260200160405190810160405280929190818152602001828054610ced90612c9d565b8015610d3a5780601f10610d0f57610100808354040283529160200191610d3a565b820191906000526020600020905b815481529060010190602001808311610d1d57829003601f168201915b5050505050908060030154908060040160009054906101000a900473ffffffffffffffffffffffffffffffffffffffff16905085565b6000600b85604051610d829190612d0a565b908152602001604051809103902060009054906101000a900460ff1615610dde576040517f08c379a0000000000000000000000000000000000000000000000000000000008152600401610dd590612e10565b60405180910390fd5b6000855111610e22576040517f08c379a0000000000000000000000000000000000000000000000000000000008152600401610e1990612e7c565b60405180910390fd5b6000600854905060086000815480929190610e3c90612ecb565b9190505550610e4b87826119fd565b610e558184611a1b565b6040518060a001604052808781526020018681526020018581526020014281526020018873ffffffffffffffffffffffffffffffffffffffff16815250600a60008381526020019081526020016000206000820151816000019081610eba91906130bf565b506020820151816001019081610ed091906130bf565b506040820151816002019081610ee691906130bf565b506060820151816003015560808201518160040160006101000a81548173ffffffffffffffffffffffffffffffffffffffff021916908373ffffffffffffffffffffffffffffffffffffffff16021790555090505080600987604051610f4c9190612d0a565b9081526020016040518091039020819055506001600b87604051610f709190612d0a565b908152602001604051809103902060006101000a81548160ff0219169083151502179055508673ffffffffffffffffffffffffffffffffffffffff1686604051610fba9190612d0a565b6040518091039020827f0b7d56e01e33aee83cf83b9b8c8304c88c82a7f8cbc96fb9b54464be9637ab218888604051610ff4929190613191565b60405180910390a48091505095945050505050565b6000600560008473ffffffffffffffffffffffffffffffffffffffff1673ffffffffffffffffffffffffffffffffffffffff16815260200190815260200160002060008373ffffffffffffffffffffffffffffffffffffffff1673ffffffffffffffffffffffffffffffffffffffff16815260200190815260200160002060009054906101000a900460ff16905092915050565b6110a561147d565b600073ffffffffffffffffffffffffffffffffffffffff168173ffffffffffffffffffffffffffffffffffffffff16036111175760006040517f1e4fbdf700000000000000000000000000000000000000000000000000000000815260040161110e9190612572565b60405180910390fd5b61112081611504565b50565b6000634906490660e01b7bffffffffffffffffffffffffffffffffffffffffffffffffffffffff1916827bffffffffffffffffffffffffffffffffffffffffffffffffffffffff1916148061117d575061117c82611a77565b5b9050919050565b60008061119083611b59565b9050600073ffffffffffffffffffffffffffffffffffffffff168173ffffffffffffffffffffffffffffffffffffffff160361120357826040517f7e2732890000000000000000000000000000000000000000000000000000000081526004016111fa9190612903565b60405180910390fd5b80915050919050565b60006004600083815260200190815260200160002060009054906101000a900473ffffffffffffffffffffffffffffffffffffffff169050919050565b600033905090565b61125e8383836001611b96565b505050565b60008061126f84611b59565b9050600073ffffffffffffffffffffffffffffffffffffffff168373ffffffffffffffffffffffffffffffffffffffff16146112b1576112b0818486611d5b565b5b600073ffffffffffffffffffffffffffffffffffffffff168173ffffffffffffffffffffffffffffffffffffffff1614611342576112f3600085600080611b96565b6001600360008373ffffffffffffffffffffffffffffffffffffffff1673ffffffffffffffffffffffffffffffffffffffff168152602001908152602001600020600082825403925050819055505b600073ffffffffffffffffffffffffffffffffffffffff168573ffffffffffffffffffffffffffffffffffffffff16146113c5576001600360008773ffffffffffffffffffffffffffffffffffffffff1673ffffffffffffffffffffffffffffffffffffffff168152602001908152602001600020600082825401925050819055505b846002600086815260200190815260200160002060006101000a81548173ffffffffffffffffffffffffffffffffffffffff021916908373ffffffffffffffffffffffffffffffffffffffff160217905550838573ffffffffffffffffffffffffffffffffffffffff168273ffffffffffffffffffffffffffffffffffffffff167fddf252ad1be2c89b69c2b068fc378daa952ba7f163c4a11628f55a4df523b3ef60405160405180910390a4809150509392505050565b611485611249565b73ffffffffffffffffffffffffffffffffffffffff166114a3610a43565b73ffffffffffffffffffffffffffffffffffffffff1614611502576114c6611249565b6040517f118cdaa70000000000000000000000000000000000000000000000000000000081526004016114f99190612572565b60405180910390fd5b565b6000600760009054906101000a900473ffffffffffffffffffffffffffffffffffffffff16905081600760006101000a81548173ffffffffffffffffffffffffffffffffffffffff021916908373ffffffffffffffffffffffffffffffffffffffff1602179055508173ffffffffffffffffffffffffffffffffffffffff168173ffffffffffffffffffffffffffffffffffffffff167f8be0079c531659141344cd1fd0a4f28419497f9722a3daafe3b4186f6b6457e060405160405180910390a35050565b600073ffffffffffffffffffffffffffffffffffffffff168273ffffffffffffffffffffffffffffffffffffffff160361163b57816040517f5b08ba180000000000000000000000000000000000000000000000000000000081526004016116329190612572565b60405180910390fd5b80600560008573ffffffffffffffffffffffffffffffffffffffff1673ffffffffffffffffffffffffffffffffffffffff16815260200190815260200160002060008473ffffffffffffffffffffffffffffffffffffffff1673ffffffffffffffffffffffffffffffffffffffff16815260200190815260200160002060006101000a81548160ff0219169083151502179055508173ffffffffffffffffffffffffffffffffffffffff168373ffffffffffffffffffffffffffffffffffffffff167f17307eab39ab6107e8899845ad3d59bd9653f200f220920489ca2b5937696c318360405161172c9190612401565b60405180910390a3505050565b60008373ffffffffffffffffffffffffffffffffffffffff163b11156118e3578273ffffffffffffffffffffffffffffffffffffffff1663150b7a02868685856040518563ffffffff1660e01b8152600401611798949392919061321d565b6020604051808303816000875af19250505080156117d457506040513d601f19601f820116820180604052508101906117d1919061327e565b60015b611858573d8060008114611804576040519150601f19603f3d011682016040523d82523d6000602084013e611809565b606091505b50600081510361185057836040517f64a0ae920000000000000000000000000000000000000000000000000000000081526004016118479190612572565b60405180910390fd5b805160208201fd5b63150b7a0260e01b7bffffffffffffffffffffffffffffffffffffffffffffffffffffffff1916817bffffffffffffffffffffffffffffffffffffffffffffffffffffffff1916146118e157836040517f64a0ae920000000000000000000000000000000000000000000000000000000081526004016118d89190612572565b60405180910390fd5b505b5050505050565b60606118f582611184565b50600060066000848152602001908152602001600020805461191690612c9d565b80601f016020809104026020016040519081016040528092919081815260200182805461194290612c9d565b801561198f5780601f106119645761010080835404028352916020019161198f565b820191906000526020600020905b81548152906001019060200180831161197257829003601f168201915b5050505050905060006119a0611e1f565b905060008151036119b55781925050506119f8565b6000825111156119ea5780826040516020016119d29291906132ab565b604051602081830303815290604052925050506119f8565b6119f384611e36565b925050505b919050565b611a17828260405180602001604052806000815250611e9f565b5050565b80600660008481526020019081526020016000209081611a3b91906130bf565b507ff8e1a15aba9398e019f0b49df1a4fde98ee17ae345cb5f6b5e2c27f5033e8ce782604051611a6b9190612903565b60405180910390a15050565b60007f80ac58cd000000000000000000000000000000000000000000000000000000007bffffffffffffffffffffffffffffffffffffffffffffffffffffffff1916827bffffffffffffffffffffffffffffffffffffffffffffffffffffffff19161480611b4257507f5b5e139f000000000000000000000000000000000000000000000000000000007bffffffffffffffffffffffffffffffffffffffffffffffffffffffff1916827bffffffffffffffffffffffffffffffffffffffffffffffffffffffff1916145b80611b525750611b5182611ec3565b5b9050919050565b60006002600083815260200190815260200160002060009054906101000a900473ffffffffffffffffffffffffffffffffffffffff169050919050565b8080611bcf5750600073ffffffffffffffffffffffffffffffffffffffff168273ffffffffffffffffffffffffffffffffffffffff1614155b15611d03576000611bdf84611184565b9050600073ffffffffffffffffffffffffffffffffffffffff168373ffffffffffffffffffffffffffffffffffffffff1614158015611c4a57508273ffffffffffffffffffffffffffffffffffffffff168173ffffffffffffffffffffffffffffffffffffffff1614155b8015611c5d5750611c5b8184611009565b155b15611c9f57826040517fa9fbf51f000000000000000000000000000000000000000000000000000000008152600401611c969190612572565b60405180910390fd5b8115611d0157838573ffffffffffffffffffffffffffffffffffffffff168273ffffffffffffffffffffffffffffffffffffffff167f8c5be1e5ebec7d5bd14f71427d1e84f3dd0314c0f7b2291e5b200ac8c7c3b92560405160405180910390a45b505b836004600085815260200190815260200160002060006101000a81548173ffffffffffffffffffffffffffffffffffffffff021916908373ffffffffffffffffffffffffffffffffffffffff16021790555050505050565b611d66838383611f2d565b611e1a57600073ffffffffffffffffffffffffffffffffffffffff168373ffffffffffffffffffffffffffffffffffffffff1603611ddb57806040517f7e273289000000000000000000000000000000000000000000000000000000008152600401611dd29190612903565b60405180910390fd5b81816040517f177e802f000000000000000000000000000000000000000000000000000000008152600401611e119291906132cf565b60405180910390fd5b505050565b606060405180602001604052806000815250905090565b6060611e4182611184565b506000611e4c611e1f565b90506000815111611e6c5760405180602001604052806000815250611e97565b80611e7684611fee565b604051602001611e879291906132ab565b6040516020818303038152906040525b915050919050565b611ea983836120bc565b611ebe611eb4611249565b6000858585611739565b505050565b60007f01ffc9a7000000000000000000000000000000000000000000000000000000007bffffffffffffffffffffffffffffffffffffffffffffffffffffffff1916827bffffffffffffffffffffffffffffffffffffffffffffffffffffffff1916149050919050565b60008073ffffffffffffffffffffffffffffffffffffffff168373ffffffffffffffffffffffffffffffffffffffff1614158015611fe557508273ffffffffffffffffffffffffffffffffffffffff168473ffffffffffffffffffffffffffffffffffffffff161480611fa65750611fa58484611009565b5b80611fe457508273ffffffffffffffffffffffffffffffffffffffff16611fcc8361120c565b73ffffffffffffffffffffffffffffffffffffffff16145b5b90509392505050565b606060006001611ffd846121b5565b01905060008167ffffffffffffffff81111561201c5761201b612603565b5b6040519080825280601f01601f19166020018201604052801561204e5781602001600182028036833780820191505090505b509050600082602083010190505b6001156120b1578080600190039150507f3031323334353637383961626364656600000000000000000000000000000000600a86061a8153600a85816120a5576120a46132f8565b5b0494506000850361205c575b819350505050919050565b600073ffffffffffffffffffffffffffffffffffffffff168273ffffffffffffffffffffffffffffffffffffffff160361212e5760006040517f64a0ae920000000000000000000000000000000000000000000000000000000081526004016121259190612572565b60405180910390fd5b600061213c83836000611263565b9050600073ffffffffffffffffffffffffffffffffffffffff168173ffffffffffffffffffffffffffffffffffffffff16146121b05760006040517f73c6ac6e0000000000000000000000000000000000000000000000000000000081526004016121a79190612572565b60405180910390fd5b505050565b600080600090507a184f03e93ff9f4daa797ed6e38ed64bf6a1f0100000000000000008310612213577a184f03e93ff9f4daa797ed6e38ed64bf6a1f0100000000000000008381612209576122086132f8565b5b0492506040810190505b6d04ee2d6d415b85acef81000000008310612250576d04ee2d6d415b85acef81000000008381612246576122456132f8565b5b0492506020810190505b662386f26fc10000831061227f57662386f26fc100008381612275576122746132f8565b5b0492506010810190505b6305f5e10083106122a8576305f5e100838161229e5761229d6132f8565b5b0492506008810190505b61271083106122cd5761271083816122c3576122c26132f8565b5b0492506004810190505b606483106122f057606483816122e6576122e56132f8565b5b0492506002810190505b600a83106122ff576001810190505b80915050919050565b6040518060a0016040528060608152602001606081526020016060815260200160008152602001600073ffffffffffffffffffffffffffffffffffffffff1681525090565b6000604051905090565b600080fd5b600080fd5b60007fffffffff0000000000000000000000000000000000000000000000000000000082169050919050565b61239681612361565b81146123a157600080fd5b50565b6000813590506123b38161238d565b92915050565b6000602082840312156123cf576123ce612357565b5b60006123dd848285016123a4565b91505092915050565b60008115159050919050565b6123fb816123e6565b82525050565b600060208201905061241660008301846123f2565b92915050565b600081519050919050565b600082825260208201905092915050565b60005b8381101561245657808201518184015260208101905061243b565b60008484015250505050565b6000601f19601f8301169050919050565b600061247e8261241c565b6124888185612427565b9350612498818560208601612438565b6124a181612462565b840191505092915050565b600060208201905081810360008301526124c68184612473565b905092915050565b6000819050919050565b6124e1816124ce565b81146124ec57600080fd5b50565b6000813590506124fe816124d8565b92915050565b60006020828403121561251a57612519612357565b5b6000612528848285016124ef565b91505092915050565b600073ffffffffffffffffffffffffffffffffffffffff82169050919050565b600061255c82612531565b9050919050565b61256c81612551565b82525050565b60006020820190506125876000830184612563565b92915050565b61259681612551565b81146125a157600080fd5b50565b6000813590506125b38161258d565b92915050565b600080604083850312156125d0576125cf612357565b5b60006125de858286016125a4565b92505060206125ef858286016124ef565b9150509250929050565b600080fd5b600080fd5b7f4e487b7100000000000000000000000000000000000000000000000000000000600052604160045260246000fd5b61263b82612462565b810181811067ffffffffffffffff8211171561265a57612659612603565b5b80604052505050565b600061266d61234d565b90506126798282612632565b919050565b600067ffffffffffffffff82111561269957612698612603565b5b6126a282612462565b9050602081019050919050565b82818337600083830152505050565b60006126d16126cc8461267e565b612663565b9050828152602081018484840111156126ed576126ec6125fe565b5b6126f88482856126af565b509392505050565b600082601f830112612715576127146125f9565b5b81356127258482602086016126be565b91505092915050565b60006020828403121561274457612743612357565b5b600082013567ffffffffffffffff8111156127625761276161235c565b5b61276e84828501612700565b91505092915050565b612780816124ce565b82525050565b600082825260208201905092915050565b60006127a28261241c565b6127ac8185612786565b93506127bc818560208601612438565b6127c581612462565b840191505092915050565b6127d9816124ce565b82525050565b6127e881612551565b82525050565b600060a083016000830151848203600086015261280b8282612797565b915050602083015184820360208601526128258282612797565b9150506040830151848203604086015261283f8282612797565b915050606083015161285460608601826127d0565b50608083015161286760808601826127df565b508091505092915050565b60006060820190506128876000830186612777565b6128946020830185612563565b81810360408301526128a681846127ee565b9050949350505050565b6000806000606084860312156128c9576128c8612357565b5b60006128d7868287016125a4565b93505060206128e8868287016125a4565b92505060406128f9868287016124ef565b9150509250925092565b60006020820190506129186000830184612777565b92915050565b60006020828403121561293457612933612357565b5b6000612942848285016125a4565b91505092915050565b612954816123e6565b811461295f57600080fd5b50565b6000813590506129718161294b565b92915050565b6000806040838503121561298e5761298d612357565b5b600061299c858286016125a4565b92505060206129ad85828601612962565b9150509250929050565b600067ffffffffffffffff8211156129d2576129d1612603565b5b6129db82612462565b9050602081019050919050565b60006129fb6129f6846129b7565b612663565b905082815260208101848484011115612a1757612a166125fe565b5b612a228482856126af565b509392505050565b600082601f830112612a3f57612a3e6125f9565b5b8135612a4f8482602086016129e8565b91505092915050565b60008060008060808587031215612a7257612a71612357565b5b6000612a80878288016125a4565b9450506020612a91878288016125a4565b9350506040612aa2878288016124ef565b925050606085013567ffffffffffffffff811115612ac357612ac261235c565b5b612acf87828801612a2a565b91505092959194509250565b600060a0820190508181036000830152612af58188612473565b90508181036020830152612b098187612473565b90508181036040830152612b1d8186612473565b9050612b2c6060830185612777565b612b396080830184612563565b9695505050505050565b600080600080600060a08688031215612b5f57612b5e612357565b5b6000612b6d888289016125a4565b955050602086013567ffffffffffffffff811115612b8e57612b8d61235c565b5b612b9a88828901612700565b945050604086013567ffffffffffffffff811115612bbb57612bba61235c565b5b612bc788828901612700565b935050606086013567ffffffffffffffff811115612be857612be761235c565b5b612bf488828901612700565b925050608086013567ffffffffffffffff811115612c1557612c1461235c565b5b612c2188828901612700565b9150509295509295909350565b60008060408385031215612c4557612c44612357565b5b6000612c53858286016125a4565b9250506020612c64858286016125a4565b9150509250929050565b7f4e487b7100000000000000000000000000000000000000000000000000000000600052602260045260246000fd5b60006002820490506001821680612cb557607f821691505b602082108103612cc857612cc7612c6e565b5b50919050565b600081905092915050565b6000612ce48261241c565b612cee8185612cce565b9350612cfe818560208601612438565b80840191505092915050565b6000612d168284612cd9565b915081905092915050565b7f4953424e206e6f74206d696e7465640000000000000000000000000000000000600082015250565b6000612d57600f83612427565b9150612d6282612d21565b602082019050919050565b60006020820190508181036000830152612d8681612d4a565b9050919050565b6000606082019050612da26000830186612563565b612daf6020830185612777565b612dbc6040830184612563565b949350505050565b7f4953424e20616c7265616479206d696e74656400000000000000000000000000600082015250565b6000612dfa601383612427565b9150612e0582612dc4565b602082019050919050565b60006020820190508181036000830152612e2981612ded565b9050919050565b7f4953424e2063616e6e6f7420626520656d707479000000000000000000000000600082015250565b6000612e66601483612427565b9150612e7182612e30565b602082019050919050565b60006020820190508181036000830152612e9581612e59565b9050919050565b7f4e487b7100000000000000000000000000000000000000000000000000000000600052601160045260246000fd5b6000612ed6826124ce565b91507fffffffffffffffffffffffffffffffffffffffffffffffffffffffffffffffff8203612f0857612f07612e9c565b5b600182019050919050565b60008190508160005260206000209050919050565b60006020601f8301049050919050565b600082821b905092915050565b600060088302612f757fffffffffffffffffffffffffffffffffffffffffffffffffffffffffffffffff82612f38565b612f7f8683612f38565b95508019841693508086168417925050509392505050565b6000819050919050565b6000612fbc612fb7612fb2846124ce565b612f97565b6124ce565b9050919050565b6000819050919050565b612fd683612fa1565b612fea612fe282612fc3565b848454612f45565b825550505050565b600090565b612fff612ff2565b61300a818484612fcd565b505050565b5b8181101561302e57613023600082612ff7565b600181019050613010565b5050565b601f8211156130735761304481612f13565b61304d84612f28565b8101602085101561305c578190505b61307061306885612f28565b83018261300f565b50505b505050565b600082821c905092915050565b600061309660001984600802613078565b1980831691505092915050565b60006130af8383613085565b9150826002028217905092915050565b6130c88261241c565b67ffffffffffffffff8111156130e1576130e0612603565b5b6130eb8254612c9d565b6130f6828285613032565b600060209050601f8311600181146131295760008415613117578287015190505b61312185826130a3565b865550613189565b601f19841661313786612f13565b60005b8281101561315f5784890151825560018201915060208501945060208101905061313a565b8683101561317c5784890151613178601f891682613085565b8355505b6001600288020188555050505b505050505050565b600060408201905081810360008301526131ab8185612473565b905081810360208301526131bf8184612473565b90509392505050565b600081519050919050565b600082825260208201905092915050565b60006131ef826131c8565b6131f981856131d3565b9350613209818560208601612438565b61321281612462565b840191505092915050565b60006080820190506132326000830187612563565b61323f6020830186612563565b61324c6040830185612777565b818103606083015261325e81846131e4565b905095945050505050565b6000815190506132788161238d565b92915050565b60006020828403121561329457613293612357565b5b60006132a284828501613269565b91505092915050565b60006132b78285612cd9565b91506132c38284612cd9565b91508190509392505050565b60006040820190506132e46000830185612563565b6132f16020830184612777565b9392505050565b7f4e487b7100000000000000000000000000000000000000000000000000000000600052601260045260246000fdfea26469706673582212201d136d3ce3744afb743e640cc90d354a5034e70e6ca45a7051ff80d94f4a00d564736f6c63430008140033",
  "linkReferences": {},
  "deployedLinkReferences": {}
}